:020000040100F9
:10000000E85B0021195C00016DE40001795C0001EE
:10001000795C0001795C0001795C0001000000005E
:10002000000000000000000000000000695A00010C
:10003000795C000100000000115A000133E4000166
:10004000F15B0001F15B0001F15B0001F15B00017C
:10005000F15B0001F15B0001F15B0001F15B00016C
:100060003BE70001F15B0001F15B0001F15B000186
:100070000BE70001F15B0001F15B0001F15B0001A6
:10008000F15B000125E70001F15B0001F15B00017C
:10009000F15B0001F15B0001F15B0001F15B00012C
:1000A000F15B0001F15B0001F15B0001F15B00011C
:1000B000F15B0001F15B000153B94AB9002908BFA7
:1000C00000281CBF4FF0FF314FF0FF3000F080B927
:1000D000ADF1080C6DE904CE00F006F8DDF804E09F
:1000E000DDE9022304B070472DE9F04F099E0D466B
:1000F00004460F46002B47D18A4294465FD9B2FA94
:1001000082F343B1C3F120019F4002FA03FC9C40FB
:1001100020FA01F10F434FEA1C451FFA8CFE220C16
:10012000B7FBF5F105FB117701FB0EF042EA074240
:10013000904208D91CEB020201F1FF3702D2904233
:1001400000F234813946121AA4B2B2FBF5F005FB75
:10015000102200FB0EFE44EA0244A64508D91CEB1F
:10016000040400F1FF3202D2A64500F219811046C4
:1001700040EA0140A4EB0E0400211EB1DC40002344
:10018000C6E90043BDE8F08F8B4208D9002E00F08D
:10019000FB800021C6E900050846BDE8F08FB3FAF0
:1001A00083F100294BD1AB42C0F0F180824240F292
:1001B000EE800846002EE5D0C6E90047E2E702B926
:1001C000FFDEB2FA82F3002B40F09D808D1A4FEAD9
:1001D000124E97B20121B5FBFEF20EFB1250250C18
:1001E00045EA004507FB02F0A8420FD91CEB0505C4
:1001F00002F1FF382CBF4FF001094FF00009A8426F
:1002000003D9B9F1000F00F0CE8042462D1AA4B2F6
:10021000B5FBFEF00EFB105500FB07F744EA054462
:10022000A74208D91CEB040400F1FF3502D2A74213
:1002300000F2B3802846E41B40EA02409DE7C1F18A
:1002400020078B4005FA01F422FA07FCFD408A40A2
:100250004CEA030C20FA07F34FEA1C491C431FFA2F
:100260008CFE00FA01F3200CB5FBF9F809FB1855D8
:1002700040EA054508FB0EF0A8420FD91CEB050526
:1002800008F1FF3A2CBF4FF0010B4FF0000BA842D2
:1002900003D9BBF1000F00F08C80D0462D1AA4B218
:1002A000B5FBF9F009FB105500FB0EFE44EA0545CD
:1002B000AE4507D91CEB050500F1FF3401D2AE4570
:1002C0007ED8204640EA0840A5EB0E05A0FB029828
:1002D00045454C46C64602D306D14B4504D20138AB
:1002E000B9EB020468EB0C0E002E6FD01A1B65EB05
:1002F0000E0522FA01F305FA07F7CD4000211F434E
:10030000C6E900753EE702FA03FCC3F1200001FADA
:1003100003F24FEA1C4EC14024FA00F51FFA8CF795
:100320009C401543B1FBFEF02A0C0EFB101142EA73
:10033000014200FB07F191420ED91CEB020200F1D1
:10034000FF382CBF4FF001094FF00009914202D94C
:10035000B9F1000F31D04046521AADB2B2FBFEF1F6
:100360000EFB112245EA024501FB07F2AA4207D91A
:100370001CEB050501F1FF3801D2AA4223D8414602
:10038000AD1A41EA004126E731463046FAE6841AC2
:1003900065EB030301201F460CE7644402384AE77B
:1003A00064440238E4E6023A65442FE702396244C5
:1003B000C9E6A8F10208654470E702386244CBE759
:1003C000023865447EE702396544D9E73146D9E60B
:1003D000704700BF73B50A4C15461E46A46914B198
:1003E000A04702B070BD0DF107008DF8074004F082
:1003F00029F99DF807302046ED1A3570F1E700BF66
:1004000078020021014B1879704700BF9802002143
:10041000044B1A79824283BF1B68242202FB0030FE
:1004200000207047980200212DE9F047DFF8E480B2
:1004300098F82E50EDB205F1080908EB89035C78B5
:10044000202C4AD0314E324F6D012B1908EB43035B
:1004500093F83430013B052B52D8DFE803F0035109
:10046000514744034FF0070A0EB100E000BFEFF31D
:10047000108272B608EB89092B1999F8021008EB63
:100480004303A14293F8353089F8013027D01AB9D7
:100490000FB100E000BF62B62B1908EB430393F8DD
:1004A000342032B3062A24D0032A22D0052A20D0B1
:1004B000012283F8342004EB4404514608EBC404C1
:1004C000D4E92D30984798F82E50EDB205F108097F
:1004D00008EB89035C78202CB6D1BDE8F087202397
:1004E00089F80230D3E74FF0030ABDE74FF0020A64
:1004F000BAE72544012308EB450585F83430DAE7EF
:1005000040F6D801702003F00FFA00BF0000000091
:1005100000000000A00200212DE9F047344D0746FD
:1005200000F10808AB7F15F82840002B14BF002607
:10053000022602F0B3F905F1B4024FEA471C20216C
:1005400004EB44030CEB040EDB0005EB4E0E08330A
:1005500052F803901344A9EB00095B6829F07F4A25
:100560001B1A564543EA090307D813F4400F04D178
:10057000202909D12046BDE8F0879EF83530214674
:10058000202B30D01C46DBE77F0115F828600420C3
:100590007B18324605EB430393F8353005F82830D5
:1005A00000E02246BB18914205EB430383F8340078
:1005B00093F83540F5D105EB88018B78DBB2202B21
:1005C00014D03B4405EB430383F83560174405EB37
:1005D00088082023204605EB470588F8022085F887
:1005E0003530BDE8F08721461C46C1E74E70EDE787
:1005F000A00200212DE9F04F85B0984608339146BE
:100600008A460DF10B0203A91C46019301F0EAFE94
:10061000DFF808B2039A1BF824409144202C29F0FB
:100620007F43009300F08480DAF800000BF1B407F8
:10063000794E014665002A190BEBC202D2F8C020A0
:100640008A1A1202FF323DDBBAF80A3043B305EBD7
:1006500004090BEBC909B9F8C6300BBBD9F8BC00CB
:1006600001F0B2FEB9F8C63099F8C420B04203F1E7
:1006700001031344034400F2CA80B34200F39480A0
:10068000002B03DA03F1F45303F59023184601F02D
:10069000D3FEDAF80010081A0002B0F54C5F11DB47
:1006A00004EB48140BEB440494F83540202C3FD065
:1006B00065002B190BEBC303D3F8C030CB1A1B0218
:1006C000FF33C1DA05EB0409DAF804204FEAC9095F
:1006D00009F1080957F8093007EB09019B1A1B02B9
:1006E000FF3329DB4B891BB3BAF80A3003BBDAF8B6
:1006F000000001F069FEBAF80A309AF80820B0420A
:1007000003F101031344034400F28180B34246DC49
:10071000002B03DA03F1F45303F59023184601F09C
:100720008BFE57F80930181A0002B0F54C5F03DB56
:10073000012005B0BDE8F08F25449AF80C300BEB92
:10074000C50595F8C8209A4209D904EB48140BEB6B
:10075000440494F83540202CEAD06500B2E7B5F89F
:10076000C620D5F8C04012B9BAF80A200ABB009BCF
:10077000E21A1202FF3246DA019BDAE90012521A3B
:1007800024F07F412244CAF8001022F07F42CAF8C8
:1007900004201BF82340202C7FF44CAFC8E703F162
:1007A000614303F5F703B9E703F1614303F5F70389
:1007B0006CE7D5F8BC0001F007FEB5F8C62095F847
:1007C000C410B04202F101020A4402441FD8B242EE
:1007D00014DC002A03DA02F1F45202F590221046EA
:1007E00001F02AFE20F07F40211A0902B1F54C5F8A
:1007F000BDDA00F1330222F07F44B8E702F1614232
:1008000002F5F702EBE7002005B0BDE8F08F40F2FB
:100810001661702003F088F8FF7F841EA00200217B
:100820002DE9F0430D4614460978064695F80B90DD
:100830001F46A87A83B02B890832A17384F80D90E3
:1008400020736381D5F8048001BBED684C49681EB4
:100850008D42A0EB030000F2898088427ADC0028F8
:1008600065DB214601F0BEFD236805EB080023F09F
:100870007F432360B9F1000F54D17B3001F0DCFDE0
:1008800020F07F40606003B0BDE8F0833C48214623
:10089000C01A01F0A7FD236823F07F432360B9F15C
:1008A000000F39D108F17B0001F0C6FD20F07F4038
:1008B000DFF8D0800DF10302606001A9608901F0CA
:1008C00091FD98F82F30202B36D0D8F81030618960
:1008D000063323F07F42206801F2277163682260AB
:1008E0001B1A134423F07F436360E868884208D3EF
:1008F0003B4632462146FFF77DFE0028C3D1D4E9AE
:100900000023334426F07F469B1A266023F07F4362
:10091000636003B0BDE8F083B9F1010F2BD108F19A
:100920005A00C1E7B9F1010F25D15A30A6E700F10D
:10093000F45000F5902094E7618906F10A0971B935
:1009400098F8B503019B984201D9C01A814429F057
:100950007F42C0E700F1614000F5F70081E702F057
:10096000E3FC08B906F13C096189E9E740F2166148
:10097000702002F0D9FF40F2BE61702002F0D4FF77
:10098000FF7F841EA00200212DE9F04F144695B090
:10099000B64D834604EB4404069101F079FF05F15E
:1009A000B401E400D5F8B823019001202B190834D4
:1009B00010600FAEBC330F1951F80480B7F80A90DD
:1009C0000FCB86E80F007B68404609F101040793CE
:1009D0003B7A1E46089301F0F7FCA54B344498423D
:1009E000044400F2FE829C4200F3F580002CC0F229
:1009F000BB806B7F2F7F0293B9F1000F04D095F875
:100A00002C20002A00F0F38095F8B4C30CF0FD030D
:100A1000012B48D00020B9EB00030246824618BFE4
:100A200001230593002F0BBF394602213B460023CB
:100A300003910199B1F1807F6FD0A8EB0101090208
:100A4000FF296ADD002B40F0F180DDF804B0194683
:100A50004FF0010E002865D10497002F62D1039951
:100A6000012071440390002B64D10298002840F0CB
:100A70008C80A8EB020E2EF07F46A6EB0B00000246
:100A800048BFFF30B1EB202F40F3F5801AB1BCF125
:100A9000030F40F0DE80002F40F0D8800024204675
:100AA00015B0BDE8F08FB5F8B6A3D145AAEB09069D
:100AB00080F0AC8100236E4A601E9442A0EB0A00D5
:100AC00000F28F82904200F38581002803DA00F162
:100AD000F45000F59020039319F100030DF12B025F
:100AE0000BA918BF0123059301F07CFC059B0B9A11
:100AF0001D2ED4BF002303F0010395F8B4C3A8EB67
:100B000002021846039B22F07F42002B8AD032213A
:100B100003910199B1F1807F8FD103214FF0040E31
:100B2000002899D00398002601440120CDE90360F4
:100B3000002B9AD0029B002B3BD1A8EB020626F09B
:100B40007F46A6EB0B031B0248BFFF33B1EB232FFD
:100B500040F39080002AA1D04FF0000ABCF1030FAF
:100B6000524657469AD0E8E704F1F4546B7F2F7F42
:100B700004F590240293B9F1000F3FF445AF3EE72E
:100B8000002F8BD0023900221746A8EB020626F070
:100B90007F46A6EB0B00000248BFFF30B1EB202FD1
:100BA00069DD002AECD007B102394FF0000AEAE70C
:100BB0005246A8EB020626F07F46A6EB0B031B026B
:100BC00048BFFF33B1EB232F54DD4FF0000A5746E7
:100BD000002AEDD162E704F161446B7F2F7F04F5B9
:100BE000F7040293B9F1000F3FF40EAF07E7039249
:100BF00002F09AFB00287FF407AF95F8B4C3039A7C
:100C00000CF0FD03012B00F0EC80019BB3F1807F21
:100C100000F00A81A8EB03031B02FF2B40F30481C1
:100C200001238246024605933223039395F82D3023
:100C30000493A3B1002F40F0D280002800F00B8174
:100C400039460023DDF804B0039373E70239002727
:100C500011E707B102390022C6469246F7E7194666
:100C60000123DDF804B09E46F4E600BFA002002197
:100C7000FF7F841E0123002A08BF4646099301F026
:100C80000DFE099B301A0002B0F5785F80F2D68025
:100C9000069A012A00F0B280019A701EB2F1807F9C
:100CA00014BF9B4643F0010B20F07F40BBF1000FC7
:100CB00000F0D8804FF0000B019001F03BFC019B4D
:100CC0000399F31A23F07F4291423FF6E7AE079A69
:100CD0000199521A134313F4400F7FF4DFAE084614
:100CE00001F072FBC14A231A934240F2C880011BF3
:100CF000914240F24B81BE4A934200F2BD80914244
:100D000040F29B81201ABB4BC3180393AB7F53B9AE
:100D1000CA45049A534638BF4B4602B91E33039A5C
:100D2000934280F28F81069B012B05D0022001F0B7
:100D300073FE012001F070FECA4500F2B280C0F0DF
:100D400007815AEA090040F06481012303220399D4
:100D500001F0AAFD002800F09D8095F82D8095F8FF
:100D60002C30B8F1000F00F01881B046BBF1000F35
:100D700040F0BA80002B00F0218195F82D305BB156
:100D80009D4B01220520C3F8082501F045FE02F025
:100D900023F9002385F82D30079900224FF0FF3307
:100DA0000CAE109108990D9401248DF8441002990D
:100DB000ADF846908DF84C708DF84D10CDF83C8014
:100DC0000C920E938D4D0FCE0FC596E80F0085E85F
:100DD0000F0064E600F1614000F5F7007BE60221B8
:100DE0002FE7B5F8B6A3CA45AAEB09063FF663AEEE
:100DF0001D2E0593D4BF0020012088E6019BB3F18E
:100E0000807F00F001814FF0000B58E719F10003DB
:100E10004FF0000218BF012305931D2ED4BF0023FD
:100E200003F001031846FDE5024601238246322005
:100E300003214FF0040E059303900DE6731E19F184
:100E4000000B23F07F4318BF4FF0010B18460193AE
:100E500001F070FB33E70123DDF804B0049703933E
:100E6000194667E6131A1B02B3F5A06F80F2918052
:100E7000FF2B7FF724AF11E6614B23441B1A03932A
:100E800044E7012303990322A1EB0901184601F06D
:100E90000BFDA8B9022001F0BFFD012001F0BCFD4F
:100EA000FCE5039B03220220A3EB0A01012301F0CE
:100EB000FBFC80F00100C3B20493059B002BE0D142
:100EC000012303220399002001F0EEFC0028E1D069
:100ED000049B002B7DD0002795F82C30B9F1000F32
:100EE0007FF444AF464638E7002B74D1019B0126BE
:100EF000DFF804A10322A3F1320105200023CAF880
:100F0000086521F07F4101F0CFFC002800F09080BF
:100F1000052001F065FD95F82D204FF0004339497B
:100F200003600B60CAF80465002A4DD0039BA3EB55
:100F300009011939002976DD03220123104601F049
:100F4000B3FC00286AD0D5F8B83300221A6023E732
:100F50000123039903221846A1EB090101F0A4FC27
:100F6000BAF1000F0CBF002300F001030493002B23
:100F70008FD0039B03220220A3EB0A01012301F07F
:100F800093FC0023049300289AD183E74B420393F8
:100F9000BCE6019001F0CEFA91E62BB9B046BBF168
:100FA000000F3FF4F9AEA1E701F0DEFF85F82C80D9
:100FB000B046BBF1000F3FF4E0AE97E701F060FFF1
:100FC000012385F82C30D8E601F0F8FF85F82D6074
:100FD000ACE7B04680E701F0C7FF002385F82C306E
:100FE00084E740F21661702002F09EFCFF1FA1070B
:100FF000FF7F841E00807BE100F00041A002002101
:101000000080841E8050004140F60C11702002F0D8
:101010008BFC40F67611702002F086FC40F67321BE
:10102000702002F081FC40F66821702002F07CFC08
:1010300040F25231702002F077FC40F60B31702004
:1010400002F072FC40F63F21702002F06DFC00BF00
:101050002DE9F041434C01F108070E46804614F893
:101060002750202D34D1404B0BB100E000BF01F0E0
:1010700015FC94F83030202B06D0E368C3F102034E
:1010800003441B02FF2B28DC202D0CD041462A46AE
:10109000FFF77AFCB8B304EB8707002384F83050DD
:1010A000FB70BDE8F08194F82C3033BB94F82D3000
:1010B000B3B9042001F0B0FC01F03CFD2021D4F8CC
:1010C000B833002284F8301001201A60BDE8F081A6
:1010D0000846FFF721FA8542C5D00020BDE8F0811F
:1010E000224B01220520C3F8082501F095FC01F0F0
:1010F00073FF002384F82D30DBE701F035FF002378
:1011000084F82C30D2E7760114F827C00421731933
:10111000624604EB430393F8353004F8273000E0CF
:101120001A46B318954204EB430383F8341093F83E
:101130003530F5D104EB87018B78DBB2202B0ED054
:10114000334404EB430383F835C0164404EB8707AC
:10115000202304EB4604BA7084F83530A1E781F807
:1011600001C0F2E7A00200210000000000F00041F1
:10117000002042F220014FF0FF3238B51A4C2025F2
:101180000346218404F13401A260024684F822500F
:1011900084F8305084F82300206084F82E00A07773
:1011A00084F82F5084F8280084F82900A083A085B3
:1011B000C4F8B40301F813200133202BFAD1FF2324
:1011C00001250A4884F8BC3384F82A5002F026FC32
:1011D00084F8BD0302F08AFCC4F8B80301F048F9B2
:1011E00084F8315038BD00BFA0020021290400015D
:1011F0002DE9F04FC04C83B001F050FB054601F0E3
:1012000099FCA368013302D04FF0FF33A360A37FA2
:10121000002B00F00481637E002B00F0898001F038
:10122000A9FA94F82A20002A40F05C8194F82F3023
:101230000121202B84F82A1000F05981202194F8F4
:10124000B43394F82FA0023B84F82F1084F829209F
:101250005FFA8AFA94F82E80012B84F828205FFA2E
:1012600088F88CBF00230123226008F1080684F867
:101270003010237714F826308B4209D003EB430358
:10128000DB0004EB030999F8CA20012A00F0FB8077
:10129000DFF874924FEA481704EB860B14F82650D7
:1012A000202D04D04046FFF737F98542F6D1B9F139
:1012B000000F01D000E000BF01F0F0FA94F83030E8
:1012C000202B06D0E368C3F1020303441B02FF2B6B
:1012D000E4DC202D32D02A460121FFF755FB0028FF
:1012E00061D004EB8603002284F83050DA7007EBFB
:1012F0000A0304EB430393F83420022A3AD004EBA8
:1013000086060122737884F82B20202B03D094F8D2
:10131000BD0302F09FFB237F002B40F0A98002F069
:10132000DDFB10B1754B00221A6003B0BDE8F08FF1
:10133000E81C20F07F4001F0FDF872E794F82C30B3
:10134000002B66D194F82D30002B55D1042001F0EC
:1013500063FB01F0EFFBD4F8B8330022202184F8BE
:1013600030101A6007EB0A0304EB430393F83420B0
:10137000022AC4D104EB860106208A7883F834005F
:10138000D3B2202B7CD03B4404EB430383F835A03D
:101390005744202204EB860304EB470783F802A09E
:1013A00087F83520ABE77B1914F82600042104EBFD
:1013B0004303024693F8353004F8263000E01A461D
:1013C000BB18954204EB430383F8341093F835308F
:1013D000F5D19BF80230DBB2202B4ED03B4404EB1E
:1013E000430383F83500BB1820218BF8022004EB5F
:1013F000430383F8351051E7414B01220520C3F820
:10140000082501F009FB01F0E7FD002384F82D30E9
:101410009CE701F0A9FD002384F82C3092E7D4E981
:1014200003304FF40C71C01A000248BFFF300012A5
:1014300003F019F923690344EB1A1B02FF33FFF68B
:10144000EAAE94F82F20082194F82F3002EB4202E4
:1014500003EB430304EBC20204EBC304D2F8B43041
:10146000D4F8B800984740F24341702002F05CFA8B
:1014700001F0AAFB0023A38351E78BF80100B2E738
:1014800081F801A084E701A90DF10302B9F8C600B3
:1014900003F1080700F0A6FF94F82F301949202B1C
:1014A00001EB070B0ED02369063323F07F42DBF8F4
:1014B0000430C859CA511B1A134423F07F43CBF898
:1014C0000430E5E6B9F8C63005F10A0913B929F088
:1014D0007F42ECE701F028FF0A490028F7D105F127
:1014E0003C09F4E740F25441702002F01DFA40F24A
:1014F0005741702002F018FAA0020021048C00412C
:1015000000F000415403002100000000F8B50E4631
:10151000074601F011FE1149002391F82E5001F108
:101520003404EDB204EB851402E00133202B12D019
:1015300014F81320D8B2002AF7D103EB4515012285
:1015400003EB430301EB450501EBC30385F83420AE
:10155000C3E92D76F8BD1846F8BD00BFA0020021F2
:10156000AF4A53682DE9F04FC3F308038DB00190E3
:101570000491002B00F0AB82103B59B20029C0F25D
:101580003281A84B5B5C5B090293002B40F03581F4
:10159000A54C94F82F30202B00F02483049B1B785B
:1015A0000293002B40F02383DFF88CB2BBF1000FD5
:1015B00004D0002140F25F7000E000BF019B4FF0BB
:1015C000010803EB4303DB000793BBF1000F04D0DA
:1015D000002140F2677000E000BFB8F1000F04D1B5
:1015E000924B0BB100E000BF62B64FF0000394F8DD
:1015F0002E9084F82B305FFA89F9029B002B40F083
:1016000026824D4609F10807BBF1000F04D00021E6
:1016100040F27B7000E000BF01F040F94B4608AAA1
:1016200004990646FFF7FCF8BBF1000F04D0002137
:1016300040F2827000E000BF019B6D01EA1804EBEC
:10164000420292F83430013B012B00F2E780DDF8D2
:1016500020E07749AEEB0603194031B10998861BAB
:101660001E4316F4400F00F0E980019B04EB870154
:101670000420EA188B78DBB204EB4202202B82F8BC
:10168000340000F06382019A2B44114604EB4303BB
:1016900083F835200D44202204EB8703012604EB58
:1016A0004505997085F8352004EB8707FD78EDB284
:1016B000BBF1000F04D0002140F2897000E000BFB0
:1016C0005C4B0BB100E000BFEFF3108772B6B84679
:1016D000BBF1000F04D0002140F28F7000E000BF8A
:1016E00094F82B3003F0FF01002B7FF46EAFBBF1B9
:1016F000000F03D040F2977000E000BF079B04EB9F
:10170000030C08AB0CF1BC0C0FCB8CE80F009EB3A4
:10171000BBF1000F04D0002140F2A47000E000BF34
:10172000029B002B0CBF002505F00105BDB194F80C
:101730002F30202B13D1BBF1000F04D0002140F239
:10174000A97000E000BF49460220FFF781FC30B9D4
:10175000049B1B78002B00F00782012B54D0BBF1B7
:10176000000F04D0002140F2C67000E000BF01234A
:1017700084F82E9084F82B30BBF1000F04D00021A8
:1017800040F2CF7000E000BF27B9284B0BB100E05A
:1017900000BF62B6BBF1000F04D0002140F2D3704D
:1017A00000E000BF9EB194F82E3004EB830393F861
:1017B0002130202B0BD0BBF1000F04D0002140F2D0
:1017C000DA7000E000BF94F8BD0302F043F9BBF10A
:1017D000000F04D0002140F2DF7000E000BF30466F
:1017E0000DB0BDE8F08F03F00F03043B13441B7EE4
:1017F0005B090293002B3FF4CBAE049B1B78012BBB
:1018000000F2FA81084CCFE6BBF1000F3FF4DDAEE9
:10181000014640F2BC7000E000BFD6E6002643E778
:1018200000ED00E000E400E0A00200210000000064
:10183000FEFFFF00000000000000000014F82780F9
:10184000B8F1200F00F08D814FEA48062023C246F0
:1018500006EB0801059304EBC101D1F8C010AEEB13
:1018600001010902FF3148DB7146BDF82A3033B36C
:101870000AEB4A0304EBC306B6F8C620FAB9D6F859
:10188000BC0000F0A1FDB6F8C62096F8C410531CA9
:10189000D14A0B449042034400F29881CE4A9342CD
:1018A00000F35881002BC0F22C81184600F0C4FDD3
:1018B0000899081A0002B0F54C5FC0F21E81AA44D4
:1018C000CDF8148004EB4A0A9AF835A0BAF1200F3B
:1018D00000F006814FEA4A0000EB0A0304EBC30361
:1018E000D3F8C030CB1A1B02FF3301DBD046BCE774
:1018F000CDF814800646D0460998059B03972F46DD
:10190000DFF8DCA225464446B046069308EB040601
:10191000F60008365AF806300AEB06011B1A1B02BD
:10192000FF337EDB4B891BB3BDF82A3003BB08981D
:1019300000F04AFDBDF82A309DF828100133A64A70
:101940000B449042034400F24181934200F3BA8079
:10195000002B03DA03F1F45303F59023184600F04B
:101960006BFD5AF80630181A0002B0F54C5F58DBD0
:101970002C463D46039FDDE90532934200F0AE80E0
:10198000202A00F03E81069BEB1804EB430393F8FA
:101990003520059B202B00F0B980EB1804EB4303A6
:1019A00093F8350083F8352003460521069E00E0B4
:1019B0001346EA189E4204EB420282F8341092F871
:1019C0003520F5D104EB8706B178C9B2202900F0A3
:1019D000C680294404EB410181F83500019904EBEC
:1019E0008706E8184FF0200C6918B370059B04EBCC
:1019F000400004EB4101634580F835C081F8352093
:101A000000F09180059B2B4404EB4308019B88F870
:101A100035301D440323012604EB450585F8343099
:101A200042E6A0449DF82C3005EBC80898F8C81091
:101A300099424FD93B1905EB430393F83530202BDE
:101A40007AD006944FEA43081C4609985EE7634E35
:101A500009F1010506EB891705F001050FCF06EB2B
:101A600085160FC60FCF0FC60FCF0FC697E80F0012
:101A700086E80F00BBF1000F04D0002140F2DA50DD
:101A800000E000BF09F1080905F1080754F8293002
:101A900044F82730BBF1000F04D0002140F2DE50A3
:101AA00000E000BFBBF1000F04D0002140F27170D4
:101AB00000E000BF94F82B30002B7FF486AD5FFA76
:101AC00085F9A1E503F1614303F5F70346E7082330
:101AD000029392E62C463D46039FC6E5202B1AD082
:101AE000059BEA18019B04EB4202EB1892F83520A3
:101AF00004EB430383F8352084E709984FEA48064E
:101B0000FBE603F1F45303F59023CEE614F8270027
:101B100004F8272048E7019B14F82720EB1804EB72
:101B2000430383F8352004EB87030199012204F86D
:101B30002710DA700B466CE7A046059B2C463D4605
:101B40009845039FCAD0CDF818801CE7019B4B70C5
:101B500019469FE503F1614303F5F703A5E67070AD
:101B60003CE782F83580DEE71946BBF1000F03D071
:101B700040F2B17000E000BF94F82E300426019AC4
:101B8000DBB203F108015B0104EB810C98189CF8AF
:101B9000022004EB4000D2B280F83460202A10D03A
:101BA0001A44019804EB420282F83500034404EB26
:101BB000810220212E4604EB4303907083F83510F8
:101BC000DAE5019A8CF801201046EFE740F2166141
:101BD000702001F0A9FE00BFFF7F841ED402002107
:101BE0005403002140F25571702001F09DFE4FF426
:101BF000EB61702001F098FE40F25C71702001F002
:101C000093FE40F29121702001F08EFE014B93F87B
:101C1000BC037047A00200212DE9F041072800F223
:101C20009F80DFE800F01E55707E9D859604C04CB5
:101C300094F82F30202B00F0E98094F82F30052104
:101C400094F82F2003EB430302EB420204EBC3039F
:101C500004EBC204D3F8B430D4F8B800BDE8F041C6
:101C60001847B34C94F82C30002B00F01F81E38A06
:101C700023B101F059FB002800F0558194F82F3072
:101C8000202B00F0EB80A16801234A1C84F8293046
:101C900006D00322052000F007FE002800F03E8158
:101CA000637E012B00F0248194F82F20012194F809
:101CB0002F3002EB420203EB430304EBC20204EBBE
:101CC000C304D2F8B430D4F8B800BDE8F0411847E6
:101CD000974C94F82F30202B6FD0012584F8285092
:101CE00001F022FB002800F00F8194F82C30002B2B
:101CF00000F0F98094F82D30002B40F0E78094F844
:101D00002F200021D3E78A4C00F05EFFE38A002BEE
:101D100040F0D28094F8B433032B07D101236377CA
:101D200004E0834B0122D3F8B8331A60BDE8F08198
:101D30007F4C94F82F30202B17D04FF0FF3294F8BF
:101D40002930A260002B00F0DA8094F82F200621C1
:101D5000ADE7774BBDE8F04193F8BC0301F07ABEE4
:101D600040F6B301702001F0DFFD94F82E30DBB2B5
:101D700003F1080114F82120202A00F0CA8002EBA8
:101D800043130227012504EB810604EB43030020E3
:101D9000F57083F8347093F8353084F82B5004F8DC
:101DA000213084F82A0084F82F20A07701F096FED5
:101DB0000028C2D05F4B1D60BFE794F82E30DBB225
:101DC00003F1080114F82120202A00F0A28002EB80
:101DD00043130227012504EB810604EB4303002093
:101DE000F57083F8347093F8353084F82B5004F88C
:101DF000213084F82A0084F82F20A07701F06EFEAD
:101E000000283FF46AAF4B4B1D6066E794F82E3014
:101E1000DBB203F1080114F82120202A79D002EB6B
:101E200043130227012504EB810604EB4303002042
:101E3000F57083F8347093F8353084F82B5004F83B
:101E4000213084F82A0084F82F20A07701F046FE84
:101E500000283FF4F2AE374B1D60EEE694F82E30CA
:101E6000DBB203F1080114F82120202A51D002EB43
:101E700043130227012504EB810604EB43030020F2
:101E8000F57083F8347093F8353084F82B5004F8EB
:101E9000213084F82A0084F82F20A07701F01EFE5C
:101EA00000283FF4F0AE234B1D60ECE600F0E8FFA5
:101EB000012384F82C30DAE601F036FA00287FF4AA
:101EC00029AF4FF40A61702001F02EFD1A4B012258
:101ED0000520C3F8082500F09FFD01F07DF80023E0
:101EE00084F82D300BE700F0CBFF84F82C5001E78D
:101EF0002069013820F07F4000F0DCFBD4E640F69A
:101F00008501702001F010FD40F69501702001F070
:101F10000BFD40F29E31702001F006FD40F6750188
:101F2000702001F001FD40F66F01702001F0FCFC13
:101F3000A0020021048C004100F000410E4B93F8F8
:101F40002F20202A11D093F82F20042193F82F005E
:101F500002EB420200EB400003EBC20203EBC003C2
:101F6000D2F8B420D3F8B800104710B540F6BB0142
:101F7000702001F0D9FC00BFA002002110B52D4C4B
:101F800082B094F82F30202B3BD0A36801334CD182
:101F90006268294913188A4242D8284A90423ADC9A
:101FA000274A904232DB8B421ADC002B13DB1846A7
:101FB0000DF1030201A900F015FA9DF80320019923
:101FC00094F829300F2A88BF013121F07F41A160A8
:101FD0005BB902B010BD03F1F45303F59023E6E7BB
:101FE00003F1614303F5F703E1E701230322052031
:101FF00000F05AFC0028ECD140F6F121702001F0ED
:1020000093FC40F6E721702001F08EFC4FF4C36191
:10201000702001F089FC40F21761702001F084FC0F
:1020200040F21661702001F07FFC40F6E82170203C
:1020300001F07AFCA0020021FF7F841E0020A1078E
:1020400000E05EF810B50A4C94F831306BB194F8AA
:10205000BC33FF2B02D00023184610BD01F0DEFC7C
:10206000002384F8BC03184610BD6FF02203F3E789
:10207000A002002138B50F4B04460BB100E000BFB1
:10208000EFF3108572B6012321460322062000F0EB
:102090000BFC044625B9084B0BB100E000BF62B64B
:1020A00004B138BD054B93F8BC03BDE8384001F0DE
:1020B000D1BC00BF0000000000000000A002002111
:1020C00000F0ECBB294938B591F82F30202B48D0CF
:1020D00091F82F5091F82E3091F82E40EDB2083340
:1020E000E4B211F82330202B18D003EB430201EBAC
:1020F000C20292F8C820824213D9640107E003EBC0
:10210000430201EBC20292F8C820824209D923445B
:1021100001EB430393F83530202BF0D14FF0FF3023
:1021200038BD03EB430305EB450501EBC30301EBAE
:10213000C505D3F8BC00D5F8C030C01A000210F1B4
:10214000FF0F01DA002038BD00280C68B8BFFF304F
:10215000001200F039F904F174038342F2D8001B35
:1021600038BD40F64C31702001F0DEFBA0020021AA
:102170002DE9F04F914C85B094F82F20202A00F0E3
:10218000158194F82F60074694F82E500DF10B023C
:1021900020688B462369083503A938440193F6B2B9
:1021A00014F8255000F01EF9A7F17401844A9142F9
:1021B00065D806EB4606039B04EBC606D6E92F203E
:1021C00000EB030CACEB020212F4400F57D194F871
:1021D0002E902CF07F40202D84F818B05FFA89F300
:1021E00020611A4600F0D3802023924604F1B409FE
:1021F000DFF8D0815A4600936E0006EB050B4FEADC
:10220000CB0B0BF1080B59F80B3009EB0B011B1A28
:102210001B02FF3356DB4B890BB1E38A9BB30520CE
:1022200000F0FAFB4FF0FF3294F82E30A260009AD3
:10223000DBB2202A40F0BF800833202514F82300A9
:1022400094F82E20012194F82F3084F82B1003EB02
:102250004213617E226804EB43030129174483F88B
:102260003500276000F08980202D00F0828094F8EE
:10227000BD0301F0EFFB002005B0BDE8F08F0120A9
:1022800005B0BDE8F08FE06800F09EF8E38A227D9B
:10229000404503F101031344034400F282804345A7
:1022A00023DC002B03DA03F1F45303F590231846E3
:1022B00000F0C2F859F80B30181A0002B0F54C5F64
:1022C000ADDA227E2E4404EBC60696F8C83093425F
:1022D00010D905EB4A1304EB430393F8351020297A
:1022E0000ED000950D46206986E703F1614303F5A2
:1022F000F703DCE7019B0220236105B0BDE8F08F06
:10230000052000F089FB94F82E304FF0FF32DBB24D
:10231000A2605E0103F108014FF0050C731914F877
:1023200021E004EB4303724693F8353004F8213082
:1023300000E00246B318954204EB430383F834C02F
:1023400093F83500F5D104EB810C9CF80230DBB238
:10235000202B19D0334404EB430383F835E01644B3
:1023600004EB8103202104EB46069A7086F83510B1
:1023700066E7002005B0BDE8F08F2069013820F045
:102380007F4000F097F96FE78CF801E0E7E7052060
:1023900000F042FB4FF0FF3294F82E30A260DBB227
:1023A0004AE740F21661702001F0BEFA40F6733140
:1023B000702001F0B9FA009DABE700BFA002002138
:1023C0008C1FA107FF7F841E43F60952C0F3080348
:1023D000400A02FB03F302FB00F003F5807300EBFD
:1023E0005320704770B4460B48F2376443F60955E2
:1023F000104B04FB06F443F60856240C05FB1400AE
:1024000003FB00F35B0D05FB03F503EB44232E44B4
:10241000B0EB562F08D805F580750B60A0EB552062
:10242000C0B270BC10707047013300200B60107098
:1024300070BC70476F0C0100410B48F237620B4BC8
:1024400002FB01F210B4120C43F6095404FB120112
:10245000500201FB0333013B5B0D04FB03F4B1EBC2
:10246000542F10BC88BF0130184470476F0C010016
:1024700030B404212B4C4FF0807300222A484FF4D3
:102480008055A17063602270C0F88050BFF34F8FF9
:10249000BFF36F8F254B0121C0F880514FF0FF35FE
:1024A00022724FF400345960C3F80853C3F8402532
:1024B000C3F84021C3F84425C3F84421C3F8482594
:1024C000C3F84821C3F84C25C3F84C211961C0F862
:1024D0008040BFF34F8FBFF36F8F154AC0F8804124
:1024E000134651609160D3F80425002AFBD14FF0C8
:1024F000FF310D4C4FF400350120C3F80813C3F829
:102500004813C3F84025C3F84021C3F84425C3F855
:102510004421C3F84825C3F848212560186030BC21
:10252000704700BF6006002100E100E000C00041EC
:102530000010014156490A78012AF8B520D14B68AC
:10254000834200F09A80534D0626534B6FF480244B
:10255000C5F80865C3F808434F4B00246FF4A02565
:10256000C3F84853C3F84445C3F844414A4BD3F831
:102570004831FBB9494B4FF40034C3F8804119E0AE
:10258000444D0626444B6FF48024C5F80865C3F813
:102590000843002AE0D1C3F84843C3F84025C3F8F4
:1025A0004021C3F84425C3F844213B4BD3F84831BC
:1025B000002BDFD0384B4FF480360024384DC3F861
:1025C0000863C3F84863C3F84041D3F80445041BCB
:1025D0002C4253D014F4400F50D1C3F84005C3F837
:1025E00044632AB14C68D3F80425A21A2A42FAD0CF
:1025F00000220126294C4FF480558A70CE60C4F821
:102600008050BFF34F8FBFF36F8F264B4FF0020CFC
:102610004FF0FF3EC4F8805104270A72486040F230
:1026200001405E60C3F808E3C3F84025C3F84021C9
:10263000C3F84425C3F84421C3F84825C3F848210A
:10264000C3F84C25C3F84C211E61C3F80425C3F818
:1026500008C5CA68DFF858C0C3F81075DE60C3F853
:102660000022114E114B0B4AC4F880512560CCF862
:1026700000303360C2F804750880F8BD064B0022B4
:1026800040F2EF116C20C3F8402501F04DF900BF76
:102690006006002100F000410010014100E100E06F
:1026A000FEFFFF0000C0004180C00041020000802A
:1026B000C0110141284AF8B517785668022F3DD05D
:1026C000864243D0137A002B3BD0244B4FF4803505
:1026D000234C00214FF0020CC4F808C5C3F808537E
:1026E000C3F84853C3F84011D3F804151D4C411AE0
:1026F000214202D011F4400F08D0184B002240F2C2
:102700000D216C20C3F8402501F00EF9C3F84005F7
:10271000C3F8445327B1D3F80415711A2142FAD0F3
:1027200050600224104B40F20241104E104D0C48F4
:1027300033602B60C0F804451180F8BD8642C1D1DA
:10274000F8BD40F201216C2001F0EEF840F2FD11DD
:102750006C2001F0E9F800BF600600210010014183
:1027600000F00041FEFFFF0001000080C0110141A8
:102770008CC00041F8B53D4C6FF480213C4B227871
:10278000C3F80813002A5DD1C3F84813C3F84025E5
:10279000C3F84021C3F84425C3F84421D3F8483195
:1027A000002B5DD1334B4FF40031C3F88011022A66
:1027B00056D12F4B6268D3F80405033020F07F40D8
:1027C00082420FD0D3F804352B49D31A194049B1AE
:1027D00013F4400F06D1FFF7ADFEE268274BC3F8B4
:1027E0000022F8BD224B2649D3F80435D31A1940EC
:1027F00011B113F4400308D0012300211A46E3600D
:102800001E4BA170C3F80022F8BD01211B4D1D48CD
:10281000022662600A46C0F808650427A37040F2E9
:102820000146E1606960E96005F5A345164B403556
:1028300016492B600B60114BC0F804752680C3F855
:102840000022F8BD00216FF4A020C3F84803C3F8AC
:102850004415C3F84411D3F84831002BA7D1A1E7A0
:1028600040F219216C2001F05FF800BF60060021E2
:102870000010014100E100E0FCFFFF0000C000414A
:10288000FEFFFF0000F000410200008080C0004118
:10289000014B5868704700BF60060021014BD3F818
:1028A0000405704700100141F8B50446062C00F2FB
:1028B0008B80DFE804F02929292904040400454815
:1028C000057815B14078A04279D0043C42480125F2
:1028D0000026E4B204F1100700EB8404BD40C0F808
:1028E0000853C0F84853C4F84061A2B3D0F80405B7
:1028F000081A20F07F46B24202D810F4400F2AD0C6
:102900000020C4F84005F8BD32484568B5F1807F25
:102910003AD00578022D3FD004F1100501202F4E4A
:1029200000FA05F5C6F808530AB306EB84073864C5
:10293000D7F84005081A20F07F4700F44000BA425B
:1029400098BF00280CBF0120002010D004F5A87407
:1029500046F82400F8BD012BC4F8401502D11E4BE7
:10296000C3F804531C4B0120C3F84453F8BD04F5CD
:10297000A8741A4A012B42F8241001D00120F8BD96
:10298000C2F804531846F8BD057A002DC1D14FF4A2
:1029900013716C2000F0C8FF4078051F0328EDB2CA
:1029A00006D950350C4E56F825000028B4D1FAE768
:1029B00050300A4E56F82050002DFBD0ACE740F2C4
:1029C0006F216C2000F0B0FF4FF41D716C2000F0FF
:1029D000ABFF00BF600600210010014100C00041B4
:1029E00008B506280FD8DFE800F00A0A0A0A04042E
:1029F00004000438064BC0B203EB800008BD054B51
:102A000003EB800008BD4FF426716C2000F08CFFB2
:102A1000C0110141C0C1004170B582B0062873D811
:102A2000DFE800F02B2B2B2B04040400394A031F92
:102A30001178DBB211B15478844233D0364A03F1B5
:102A40001000012102EB830481403448C2F80813CE
:102A5000C2F84813D4F84015D2F804258A1A104059
:102A600020B10022C4F84025C4F840212C4A52F875
:102A700023300193019B02B070BD00F11002294C7C
:102A800001230021284D934004EB8002C4F8083351
:102A9000C2F84015C2F8401155F820300093009B51
:102AA00002B070BD214806240129C0F8084505D0B0
:102AB00000204FF0807110705160BFE71C4C4FF444
:102AC0008055C4F88050BFF34F8FBFF36F8F4FF026
:102AD000FF36C4F88051A0F54050002441601472C4
:102AE000C0F80863C0F84045C0F84041C0F844450C
:102AF000C0F84441C0F84845C0F84841C0F84C45CA
:102B0000C0F84C410161D3E740F2ED216C2000F0A8
:102B10000BFF00BF6006002100100141FEFFFF0017
:102B20004011014100C0004140C1004100F000419E
:102B300000E100E0204A6FF48021204B1278C3F8B6
:102B4000081322BBC3F84813C3F84025C3F840213B
:102B5000C3F84425C3F84421184BD3F8483123B3B4
:102B6000174B00224FF0FF31C3F80813C3F840257C
:102B7000C3F84021C3F84425C3F84421C3F84825CD
:102B8000C3F84821C3F84C25C3F84C2170470022F4
:102B90006FF4A021C3F84813C3F84425C3F84421B7
:102BA000064BD3F84831002BDAD1064B4FF40032F4
:102BB000C3F88021D4E700BF600600210010014166
:102BC00000C0004100E100E0074B93F91030002BFA
:102BD00009DB5A09012103F01F030448403201FABE
:102BE00003F340F8223070476006002100E100E066
:102BF000374BD3F80423D00310B502D5D3F84021C6
:102C000072BB334BD3F80423910303D5D3F844218B
:102C1000002A41D12E4BD3F80423520302D5D3F816
:102C2000482102B910BD2B4A00244FF400302A4934
:102C3000C3F84841C2F88001D3F84825D3F80435D9
:102C4000D31A194011B113F4400FEBD0204B4FF4BD
:102C500080220620C3F80823BDE81040FEF7DCBF41
:102C60001C4A00244FF400301B49C3F84041C2F80D
:102C70008001D3F84025D3F80435D31A194011B197
:102C800013F4400FBDD0124B4FF480320420C3F830
:102C90000823FEF7C1FFB4E70E4A00244FF40030CA
:102CA0000D49C3F84441C2F88001D3F84425D3F854
:102CB0000435D31A194011B113F4400FAAD0044BB4
:102CC0004FF400320520C3F80823FEF7A5FFA1E763
:102CD0000010014100E100E0FEFFFF00F0B5594C9B
:102CE00085B0A378042B32D023785BB1012B00F0A0
:102CF000A280237A002B00F0A0800223607823704A
:102D0000FFF78AFE504BD3F80423150302D5D3F8FE
:102D10004C2112BB4C4BD3F80423500303D5D3F8FA
:102D20004821002A34D1484BD3F80423910303D51A
:102D3000D3F84421002A46D1434BD3F80423D203CD
:102D400003D5D3F84021002A58D105B0F0BD0720A3
:102D500005B0BDE8F040FEF75FBF00224FF4002051
:102D60003A4D4FF48051C3F808030320C3F84C25B3
:102D7000C3F84C212A68364B0092009AC3F88011A0
:102D8000FEF74AFF304BD3F804235003CBD5C6E7F8
:102D900000224FF480202F4D4FF48051C3F80803D8
:102DA0000220C3F84825C3F848212A68284B01921D
:102DB000019AC3F88011FEF72FFF234BD3F80423A9
:102DC0009103B9D5B4E700224FF40030224D4FF4FF
:102DD0008051C3F808030120C3F84425C3F84421F7
:102DE0002A681B4B0292029AC3F88011FEF714FF67
:102DF000154BD3F80423D203A7D5A2E700224FF442
:102E0000803116484FF48056C3F808130421C3F8E4
:102E10004025C3F8402100680D4D03901046039FE4
:102E2000E260C5F88061A170C3F8002205B0BDE87A
:102E3000F040FEF7F1BE23725FE740F266316C208E
:102E400000F072FD6006002100C000414CC100414D
:102E500000E100E048C1004144C1004140C10041DF
:102E6000FFF76CB8054BD3F80C24D3F80C0410F41E
:102E7000803018BF02F00100704700BF00500041D1
:102E800010B5EFF3108472B6064A13790133DBB242
:102E900013711379012B01D100F02AFA04B962B63B
:102EA00010BD00BF7406002170B50B4C26785EB9CA
:102EB0000125A0602570FFF7E3FF00F035FA28B97F
:102EC000064B2573C3F80453002070BDA368002B84
:102ED000FAD09847A660F7E7740600210050004139
:102EE00008B5FFF7CDFF00F01FFA084B38B1084ACC
:102EF0000121116004225A7300229A7308BD032233
:102F000001215A73034AC2F80413F5E7740600213D
:102F1000105000410050004138B5124CE37BC3B162
:102F2000012B03D0A27B013B9A4212DA00F0FCF99C
:102F3000054600F035FDE37B012B82BFA37B013307
:102F4000A37355B12369C31A0133022B09D935B1D3
:102F50002061BDE83840FFF7C3BF6369F3E76061F4
:102F6000F7E738BD7406002110B5EFF3108472B690
:102F70000A4B1A7922B940F20D116D2000F0D4FCF1
:102F80001A79013AD2B21A711A791AB91B7E0BB9A1
:102F900000F0B4F904B962B610BD00BF7406002198
:102FA00008B5054B1A7822B100221A731A70FFF780
:102FB000DBFF002008BD00BF74060021EFF3108185
:102FC00072B6044A137E0133DBB2137601B962B6DE
:102FD000704700BF7406002110B5EFF3108472B67D
:102FE0000A4B1A7E22B940F225116D2000F09CFC9C
:102FF0001A7E013AD2B21A761A791AB91B7E0BB927
:1030000000F07CF904B962B610BD00BF740600215F
:1030100070B5194D6B7E2C467BB9E86900F0030052
:1030200000F0A8F948B100F0A1FA30B9EFF310832D
:1030300072B66A7B12B103B962B670BD01226A73BF
:1030400003B962B600230D4A0D4D8026C5F808630A
:10305000136084F82030FFF743FF94F844200221E6
:10306000084B094853436362084B236300F084FA1A
:10307000C5F80463E1E700BF740600211C5100415C
:103080000050004190D0030098060021192F000144
:10309000F8B5244C94F84530002B42D0224B1E68E2
:1030A00004331F6856B10122C3F80422237B2BB1DD
:1030B0000025A36825730BB19847A5603FB11B4B52
:1030C00000221A600222C3F80422FFF7A1FF184B66
:1030D0001A6894F82050EDB23EB1617B032904D107
:1030E000042101206173134908606AB100221A604B
:1030F000637B042B04D04FF4DE716D2000F014FCD0
:1031000002236373FFF730FF5DB1002384F82030A2
:10311000637B022B01D1FFF7E3FEBDE8F840FFF728
:1031200023BFF8BD74060021005100410451004145
:103130001C5100411050004110B5044CE06900F0F2
:10314000030000F017F90028F8D010BD7406002124
:10315000F8B5054660B10278022A09D8437852B919
:10316000013B1F2B04D88378212B01D8012B07D1D9
:103170006FF0150065E0002BFAD18378002BF7D1B2
:10318000534B2022C3F88020BFF34F8FBFF36F8FC4
:10319000C3F880214FF0FF324E4B4F4CC3F8082349
:1031A00000234E4A13605360D3612371AB88638060
:1031B00000F0C8F810B1012323702371FFF752FE0D
:1031C00008B100F0ABF80123AA786978E3612B78A5
:1031D000E2730022012B637684F84410A27307D0B7
:1031E00043B1022B2ED04FF44C716D2000F09CFBAC
:1031F0000223E36100F0AEF888B300F0B3F8E369AE
:1032000003F0030398422AD1AB791BBBFFF794FF6D
:10321000E37B63B12B7853B900F086F8054600F0E4
:10322000BFFB6FF00043002D4FD0C4E9040301231E
:103230002022002084F84530254B6073C3F880219C
:103240001A60F8BDFFF71CFEFFF70CFE0028FBD04C
:103250000323CEE71F4B0222C3F80423D8E7012142
:1032600000221F4B1F4E196032601A4A207FC2F89D
:1032700018051D4801600221C2F80413A97900292C
:10328000C6D1D2F80423930702D440F2F121ACE76F
:10329000164A1769116907F0100741F01001116112
:1032A00033687BB1FFF748FF27B9104A136923F051
:1032B00010031361074B0222C3F808230022C3F84E
:1032C0000421A5E701F001FAEAE7C4E90430AEE71A
:1032D00000E100E00050004174060021005100416F
:1032E0000C500041045100410850004100ED00E045
:1032F000014B01221A60704700500041044B01222B
:103300001A600023034A1360034A1370704700BF1A
:103310000450004100510041BA060021014B012236
:103320001A707047BA060021044B1B6823B9044B7E
:10333000187800F0010070470120FAE700510041C1
:10334000BA060021024BD3F8080400F001007047D0
:1033500000500041024BD3F8140400F00100704704
:1033600000500041024BD3F81C0400F003007047EA
:1033700000500041084BD3F81824D3F8183413F444
:10338000803306D002F00303C0B21B1A58425841E2
:1033900070471846704700BF00500041BFF35F8F71
:1033A000024A137803F0FE0313707047BC06002135
:1033B000064B1A78D20707D41A7842F001021A7025
:1033C000BFF35F8F0120704700207047BC060021CB
:1033D00008B5FEF775FE0A4B5B685B69181A0002B8
:1033E000B0F5407F04DB1846BDE80840FEF742BE5A
:1033F000FFF7D4FFFEF70AFCBDE8084000F02ABB47
:10340000BC060021104A536870B4154623B9C36145
:10341000506070BCFFF7DCBF46691A460024516952
:10342000711A0902FF3109DBD169144621B9E36938
:10343000C361E06170BC70470A46F0E79342F6D181
:10344000C3616860E5E700BFBC060021074A536816
:10345000834203D1DB6953607047134623B1DA69B5
:103460009042FAD1C269DA61704700BFBC06002100
:103470002DE9F843FEF724FE3A4905464C68894693
:10348000002C6CD0FFF794FF804630B9E81C20F088
:103490007F40BDE8F843FEF7EDBD4B685869401B1F
:1034A0000002B0F5407F22DA2F4E2046FFF7CEFF14
:1034B000277C0FB36369013F002503F58003277460
:1034C00023F07F436361FFF79DFFD9F8044054B1B7
:1034D000FEF7F6FD6369181A0002B0F5407F37DB8E
:1034E0001846FEF7C7FDBDE8F843FFF757BFFFF7E3
:1034F00055FF4B685869CCE7A069C8B1B042217A42
:103500001DD9B0FBF6F506FB1505002D08BF3546A5
:10351000284601F0C9F86369184420F07F406061D3
:10352000A069401BB0FBF6F020742046FFF76AFF4D
:10353000FFF734FFE368204645469847C5E701F0AA
:10354000B3F863692774184420F07F406061ECE7AA
:10355000002DAAD0FEF75AFB00F07CFAC3E7BDE8C5
:10356000F88300BFBC0600210020A1070148FEF738
:1035700069BD00BF713400012DE9F0410546884660
:10358000FFF716FF002874D0E5B13B4B5F68AFB979
:1035900010223946A81800F0ADFAFEF791FDB8F1F7
:1035A000010F064614D0B8F1000F46D0B8F1020F53
:1035B00043D040F265116E2000F0B6F9BD4201D053
:1035C000FF69E4E7FFF7EAFE6FF01500BDE8F08160
:1035D0002868DFF8A8804045F4D8297A01F064F81B
:1035E000801B03021FD43046FEF7EEFE2C68844297
:1035F00038BF4444241ADFF88880444528D9297A02
:10360000B4FBF8F708FB1747002F08BF4746E41B39
:10361000384601F049F83044B4FBF8F420F07F401C
:103620002C74686102E026F07F466E612846FFF741
:10363000E9FEFFF7B3FE0020C8E72B7A2C6883B1C0
:103640003D2C11D8B8F1020F4FF03F0400D1AC610E
:10365000297A204601F028F8304420F07F40686144
:10366000E4E75D2C38BF5D24B8F1020FC3D1AC6133
:10367000C1E76FF02200A9E7BC060021E17F841EAC
:103680000020A107094B01225A604FF0FF32C3F816
:1036900008234FF48032064BC3F88020BFF34F8FCE
:1036A000BFF36F8FC3F88021704700BF0000014156
:1036B00000E100E038B57D4D00240123C5F8FC4F42
:1036C000C5F8FC3F00F00AFA002800F0E380A723C9
:1036D0002C606C602246AC604FF0FF31EC602C61D6
:1036E0006C61AC61EC612C626C62AC62EC622C636C
:1036F000C5F88040C5F88440C5F88840C5F88C40BE
:10370000C5F89040C5F89440C5F89840C5F89C406D
:10371000C5F8A040C5F8A440C5F8A840C5F8AC401D
:10372000C5F8B040C5F80041C5F80441C5F80841E6
:10373000C5F80C41C5F81041C5F81441C5F8184149
:10374000C5F81C41C5F82841C5F83041C5F83441D9
:10375000C5F83841C5F83C41C5F84041C5F8444179
:10376000C5F84841C5F84C41C5F85041C5F8544129
:10377000C5F85841C5F85C41C5F86C41C5F87041C1
:10378000C5F88041C5F88441C5F88841C5F88C4129
:10379000C5F89041C5F89441C5F89841C5F89C41D9
:1037A000C5F8A841C5F8B041C5F8B441C5F8B8415D
:1037B000C5F8BC41C5F8C041C5F8C441C5F8C84109
:1037C000C5F8CC41C5F8D041C5F8D441C5F8D841B9
:1037D000C5F8DC41C5F8EC41C5F8F041C5F8004238
:1037E000C5F80443C5F80843C5F80445C5F80845BD
:1037F000C5F80C45C5F81045C5F81445C5F8184579
:10380000C5F81C45C5F82045C5F82445C5F8284528
:10381000C5F82C45C5F83045C5F83445C5F83845D8
:10382000C5F83C45C5F84445C5F85445C5F860455C
:10383000C5F84046C5F84446C5F84846C5F8504660
:10384000C5F860361A4BC5F86446C5F86C364FF4B7
:103850002053C5F80049C5F80439164BC5F810398E
:103860004FF48053C5F81449C5F82849C5F82C49C8
:10387000C5F85049C5F85439A300013403F1824317
:10388000082C03F50043C3F80026C3F82026C3F82C
:103890003019F1D1084B4FF48072C3F88020BFF388
:1038A0004F8FBFF36F8FC3F8802138BD0080004178
:1038B00000002D058232020000E100E070B5184DD5
:1038C00006460C462B783BBB164B6A60002808BFA7
:1038D0001E462972FFF7EEFEFFF7D4FE3046FFF7D3
:1038E00037FC0646B0B9FDF743FCFFF791FB00F04B
:1038F000AAFE002C0CDB04F01F0264090123A400C3
:10390000934004F1604404F56144C4F880312360BD
:1039100001232B70304670BD4FF0FF36FAE700BF31
:10392000C4060021500201017FB5124B5D6885B9C4
:10393000FEE7B4FBF6F4D3B20132002CF9D104AAAD
:103940001A4402F80C4C0A223BB901A8A84704B05B
:1039500070BD044600220A26EDE7013B04ACDBB251
:10396000E618B0FBF2F402FB1400303006F80C0C41
:103970002046E9E7C4060021074B93F90830002BE5
:1039800009DB5A09012103F01F03403201FA03F356
:10399000024941F822307047C406002100E100E0EE
:1039A0001B4B4FF4803170B5C3F88010BFF34F8FBD
:1039B000BFF36F8F174D0020174CC5F80001C3F8F7
:1039C00080112669216906F0100641F0100121617D
:1039D0000121C5F804132960D5F80031A3B11EB93F
:1039E000236923F0100323610A4B0122D3F8080551
:1039F0005A60C3F808230022C3F800214FF4803234
:103A0000034BC3F8802170BD00F05FFEE4E700BF08
:103A100000E100E00000014100ED00E038B50C4994
:103A20000523013BDBB2FF2B03D14B216920FFF7BC
:103A30007BFF01EBC302157905F0FF04002DF0D1E7
:103A400041F833000121547118469471117138BD49
:103A5000D0060021042808B503D95A216920FFF7B0
:103A600063FF094B03EBC0000379012B01D05B21FD
:103A7000F4E7437982790133DBB29A4218BF43718C
:103A8000BDE80840FFF778BFD006002170B50625D5
:103A9000114C0026013D15F0FF0500D170BD94F8D2
:103AA000281004EBC1031A79012A09D158799A79AF
:103AB000904205D05A79D2B29A7154F83130984771
:103AC00094F828300133DBB2042B94BF84F82830FB
:103AD00084F82860DEE700BFD0060021024B18689A
:103AE000831E5842584170473401FF010048704717
:103AF000000708418307C9B268D0002A6BD003468B
:103B000001E0002A67D003F8011B13F0030F02F154
:103B1000FF32F6D12DE9F043032A41EA012545EAB7
:103B2000054547D9A2F10408C3F380044FEA98077A
:103B3000B8F1170F07F101074AD99946002C43D075
:103B400049F8045BA7EB040E03EB84044FEA5E061E
:103B500004EBC606C4E900550834A642FAD12EF09B
:103B6000010CCCEB8C76E64509EB8C0408EB860661
:103B70001CD0A6F1040C2560BCF1030F16D9A6F1E8
:103B8000080C6560BCF1030F10D9A6F10C0CA56000
:103B9000BCF1030F0AD9A6F1100CE560BCF1030FCC
:103BA00004D9143E2561032E88BF656102F003022B
:103BB00003EB870332B1013A197003D0012A59701F
:103BC00018BF9970BDE8F0839046BBE70346A1E7B4
:103BD0001C461646CDE77047014B1B681B6818470B
:103BE00004000021014B1B685B681847040000219A
:103BF000014B1B689B68184704000021014B1B68A0
:103C00001B6918470400002108B50C4B1A7802F014
:103C1000FF0312B15A1E1A4203D0DD216B20FFF7B9
:103C200083FE19B1034207D1E221F7E723EA00033B
:103C30009B0601D1E621F1E708BD00BF0800002185
:103C400038B5164C0420FEF73DFA0421256885425C
:103C500028BF05462846FEF78BFA30B1012819D057
:103C600040F23F116B20FFF75FFE2368E068AB4234
:103C700006D1FEF783F9E26823681344E36038BD98
:103C80000123284423746389E060C01ABDE83840EA
:103C9000FEF774B920746389E068F6E744070021F1
:103CA00008B50E4B0022022003F114015A618A600C
:103CB00001221A7504229A771A689A615A681A6260
:103CC000074A107093F82400FDF74AFC20B940F22F
:103CD00003116B20FFF728FE08BD00BF4407002139
:103CE0000800002170B5EFF3108572B6254C002353
:103CF00094F8256084F82530012E08D0002E3BD0A2
:103D0000022E1DD085F3108840F29F1108E085F344
:103D1000108894F8263003F0FF0123B14FF4A67108
:103D20006B20FFF701FE1420FFF76EFF164B84F89F
:103D300026601B78012B21D1BDE87040FFF7B0BF92
:103D400094F8262012B940F25D11E9E70E4984F893
:103D500026300B78023BDBB21E2B10D8012202FA70
:103D600003F30A4A134207D144F20402134206D075
:103D700020230B70FDF73CFA85F3108870BD40F2EC
:103D80007911CDE7440700210800002141000040DF
:103D900070B5144C94F8275025B140F27E216B2069
:103DA000FFF7C2FD104B01264FF4C85284F826508D
:103DB0001E700E4B0E48C4E900230E4BA360FFF7A4
:103DC0002DFE294684F828000B48FDF79FFB20288C
:103DD00084F8240002D140F28D21E0E784F82760C6
:103DE00070BD00BF4407002108000021FF1FA1078C
:103DF000E53C00010500B700613F0001114A92F85F
:103E0000271008B5134621B94FF43B716B20FFF71B
:103E10008BFDEFF3108172B692F8252022B1012AB2
:103E20000DD04FF43F71F1E7022283F8252001B94C
:103E300062B693F82800BDE80840FFF70BBE0022E9
:103E4000F3E700BF440700210B4B93F8273010B570
:103E500023B940F20B316B20FFF766FDEFF31084BE
:103E600072B6064B1A78102A03D108221A70FDF791
:103E7000BFF904B962B610BD440700210800002153
:103E8000104B1B78042B1AD10F4B1A7C1AB95A8984
:103E90001868801A70470D4BD3F80415D3F84425E1
:103EA0000B4B013A521A120248BFFF32121222EA99
:103EB000E27282FB0323D00B40EA434070470020AC
:103EC000704700BF08000021440700210010014195
:103ED00040420F0038B5154B93F827201C4622B9F5
:103EE00040F2C1216B20FFF71FFDEFF3108572B682
:103EF00093F8253023B1022B0DD04FF43571F1E743
:103F0000012384F8253005B962B694F82800BDE88D
:103F10003840FFF79FBD064B00221B7884F8252010
:103F2000042BF0D109F016FCEDE700BF4407002197
:103F300008000021094A08B51378DBB2102B07D01E
:103F4000202B05D0042B04D11023137009F00AFC98
:103F500008BD4FF4DF716B20FFF7E6FC080000217D
:103F600008B50139324BD3F80435062939D8DFE8D2
:103F700001F00443432823564F0001210220FFF79C
:103F800043FE2C4B2C4A93F8261079B10421117072
:103F90001A68DA6000221A7493F82530022B01D0D7
:103FA00009F0D8FBBDE80840FFF74ABE2023137094
:103FB000BDE80840FDF71CB940F206216B20FFF771
:103FC000B3FC1C4B93F826205AB11B4A1278042AE2
:103FD00008D11B7C012B02D1184B1B681BBB05F0C1
:103FE000C1F808BD164B4FF48072C3F88020BFF3B0
:103FF0004F8FBFF36F8FF4E701210220FFF704FE1C
:104000000C4B93F8263033B1BDE80840FFF748BEAB
:1040100001212820F2E7084B01221A70E1E7054B45
:104020001B7C012BBED1BDE80840FFF783BF00BF5A
:104030000010014144070021080000214411014102
:1040400000E100E0002070470C4B1A6892B99A6BAF
:1040500082B95A6872B9DA6B62B993F8240058B120
:1040600093F840300121104603F1824303F52043C9
:10407000196070474FF0FF30704700BF7007002194
:104080004FF0FF307047000038B50C46054680B150
:10409000027822B1012A1BD06FF0150017E02249E7
:1040A0008B6891F83320097F00F034FA78B91E4B01
:1040B0001D60002C36D02378012BEDD11A4D201D28
:1040C00095F83220297F00F091F900B9AC6338BD32
:1040D000154B197F19B393F82F1014488900C9B2F2
:1040E0000844297941F00041016093F82F001049FC
:1040F0008000014493F82B0040F00040086093F8E2
:1041000033000C49014493F82B0040F00040086054
:1041100093F82B309A40084BC3F80425C7E74FF0BB
:10412000FF30D4E72046D2E77007002180400141EC
:104130008041014180A0004100F000414FF0FF307C
:104140007047000010B51F4C206878B1037833B178
:10415000012B19D040F2A7217120FFF7E5FB94F85D
:104160003320217F00F098F900232360A36B4BB12B
:104170001B78012B23D194F83210207F00F06AF9CC
:104180000023A363002010BD227F002AECD094F806
:104190002B20002193400C4AC2F8083594F83320B4
:1041A0000A4B995003F5214394F82F20920099501F
:1041B00094F82F30064A9B00DBB2D150D4E740F28E
:1041C000B621C9E77007002100F0004180A000413E
:1041D00080400141704700000D4B1A7F4AB1C10772
:1041E00007D593F83220012102F1824202F52042E4
:1041F000116093F820204AB1820707D593F8303038
:10420000012203F1824303F520431A60704700BF87
:10421000700700214FF0FF30704700001F4B1A68F5
:10422000002A37D15A68002A34D193F820201AB3D3
:1042300093F82E201A499200D2B21144C2B242F031
:1042400000420A6093F82E10164A89000A4493F837
:104250002A1041F00041116093F83010124A0A44CC
:1042600093F82A1041F000411160012293F82A10BE
:104270008A400E49C1F804251A7F32B1C0B293F8C2
:104280003210094A40F0004050500122002083F8CB
:10429000342070476FF01500704700BF7007002191
:1042A000804001418041014180A0004100F0004177
:1042B0000023037070470000034A137F0BB192F98B
:1042C00018300370704700BF700700214FF0FF30B7
:1042D0007047000070B50C46064678B1037813B1FC
:1042E0006FF0150070BD0E4DEB6895F8312095F814
:1042F000201000F00FF90028F4D16E6074B123781B
:10430000012BEDD1064D201D95F8302095F8201099
:1043100000F06CF80028E5D1EC63E3E72046E1E724
:10432000700700214FF0FF3070470000164B93F8E4
:10433000342032B393F82020BAB193F82A10012226
:1043400000208A401149C1F8082593F83010104A1E
:10435000505002F5214293F82E108900505093F8E6
:104360002E200C499200D2B288501A7F2AB193F8BD
:104370003210074A0A4400211160002083F83400FB
:1043800070474FF0FF3070477007002100F0004188
:1043900080A00041804001414FF0FF307047000095
:1043A00038B5114C606840B10578ADB994F831204A
:1043B00094F8201000F070F86560E36B53B11B783F
:1043C000012B0ED194F8301094F8200000F042F840
:1043D0000023E363002038BD4FF434717120FFF7F0
:1043E000A3FA40F2DF21F9E77007002121B3154954
:1043F00091F83430CBB191F8303093421FD191F81D
:104400002D30114A9B00DBB21A44037843F000437D
:10441000136091F82D200D4B9200134491F82A203F
:1044200042F000421A6000207047094911440278A6
:1044300042F000420A60F6E74FF0FF3070476FF03D
:104440001500704770070021804001418041014103
:1044500080A00041B8B10C4B93F834208AB193F896
:1044600030208A420FD193F82D10084A89000A445F
:104470000021116093F82D30054A9B00DBB2D1502A
:104480007047044B5A50704770070021804101412A
:104490008040014180A00041F8B5054617461A4EFC
:1044A000B1B196F829300124184A002104FA03F327
:1044B000C2F80835007C00F05CF9154B8000002242
:1044C000214600F5A070DA516B6880B280301A5036
:1044D00096F82430B3B196F82820012393400B4A74
:1044E000C2F80835287C00F044F996F84120800095
:1044F000074B00F5A0701344002280B21A60803090
:104500006B681A50F8BD00BF7007002100F0004131
:1045100080A000412DE9F041064690461F462E4DF1
:10452000002951D0007C002100F023F995F82920C2
:104530008300716842F00042C0B203F5A07300F539
:10454000A8709BB28033CA50012195F82920234BD3
:1045500042F0004243F80820F36895F82940726859
:10456000DB1B01FA04F442F8203095F824306BB3D9
:10457000307C00F0FEF895F828208300716842F046
:104580000042C0B203F5A07300F5A8709BB280335F
:10459000CA5095F84120114B134495F8282042F059
:1045A00000421A602B6972681F44F368DF1B012305
:1045B00042F8207095F8282093401C43084B0020B7
:1045C000C3F80445BDE8F0810C46CEE70029F5D1DB
:1045D0004FF0FF30F6E700BF7007002180A00041D8
:1045E00000F00041014B1B681B6818470C000021BC
:1045F000014B1B685B6818470C000021014B1B68CE
:104600009B6818470C000021014B1B68DB681847AA
:104610000C000021014B1B681B6918470C0000218E
:10462000014B1B685B6918470C000021014B1B689C
:104630005B6A18470C000021014B1B681B6B184775
:104640000C000021704770B50024FBF7DBFE064626
:104650002546E0B2864200D870BDFBF7D9FE013492
:1046600005808570F5E738B5E1B1A1FB0001430A8B
:104670004A0A43EAC15340F2A371581C5C184FF038
:10468000000342EB0305012D08BF002C03D3712169
:104690006D20FFF749F900F5F46040F2A171B0FB1D
:1046A000F1F038BD0846FCE713B50C460DF10302E6
:1046B00001A9FDF797FE9DF8033001980BB104B1F5
:1046C000013002B010BDFFF7E1B920BF70470028EC
:1046D0000CBF6FF0150000207047002070470723C3
:1046E000037000207047002070470020704710B50D
:1046F0000446FFF7C5FBA04294BF0020012010BD77
:1047000007B50B380A46C1B20F2903D938216420F6
:10471000FFF70AF90DF107030420FBF75BFE08B170
:104720004021F4E79DF9070003B05DF804FB7047F2
:1047300008B5FFF707FDFFF733FEBDE80840FFF7B8
:10474000F5BD0020704708B540F206317120FFF733
:10475000EBF80020704708B54FF44B717120FFF75C
:10476000E3F80020704708B54FF44D717120FFF752
:10477000DBF808B5002340FA03F2D20701D541B1B6
:1047800001390133042BF6D14FF484717120FFF706
:10479000CBF823B1012B02D0022B18BF03231846FC
:1047A00008BD00000B6801330B60014B1B68184704
:1047B0004800002107B50B4600210246019103483D
:1047C00001A900F0E5F803B05DF804FBA54700017E
:1047D0002DE9F84FB0F81890044619F008089346F0
:1047E0000DD001290CBF49F0100949F02009A0F8AB
:1047F00018908BF31188BFF36F8FBDE8F88F09F025
:104800000709022907D1204609F00BFA0028F0D049
:104810000128238B4ED16769218B002F15DA25687B
:1048200021F00701C4E9008841F00101218300263D
:10483000218B01F0070ACA4502D0A368002B5AD188
:104840000DB9002E71D0002356E001F007035A1F66
:10485000012A1ED821F00701062B256889B2C4E978
:1048600000880AD13DB12A46638B126801339BB29E
:10487000002AFAD1638341F002012046218309F026
:10488000D0F906460028D3D0238B43F0200323839E
:10489000CDE7042B0CD121F0070189B220462183FA
:1048A00009F0BFF905460028C1D041F0200121835D
:1048B0000025BCE7032809D1226923F00703166805
:1048C00043F00603002523832F46B1E7042806D1D1
:1048D000226923F00703566843F00403F2E7052832
:1048E00006D1226923F00703966843F00503E9E740
:1048F00000252E46E8E7012341F0080121838BF3D0
:104900001188BFF36F8FFBB985BB16B120461F49D5
:10491000B0474FF04003EFF3118B83F31188BFF3DF
:104920006F8F238B23F008032383238BDA0625D58F
:10493000012123F010032383B4F8189009F007092C
:1049400000297FF45EAF54E7A1680029DCD0D1F8DC
:1049500000903B4652462046D1F804B0D847B9F102
:10496000000FD1D04946D9F80090F2E729463B46DE
:10497000524620462D6809F070F9C5E713F0200172
:104980001EBF23F0200302212383D5E787DC00012B
:104990002DE9F04F8B4692461C46002591B00290BF
:1049A0009AF8000008B928465FE325280AF10107B4
:1049B00007D05946029B98470028C0F2568301351C
:1049C00012E2182200210AA809F0F0FD9AF801303D
:1049D000252B78D000221046964694461646394636
:1049E00017F8013B2B2B00F09D8000F29480202BC8
:1049F00000F09B80232B00F09B802EB19DF830604F
:104A000046F004068DF83060BCF1000F05D09DF82B
:104A1000306046F008068DF83060BEF1000F05D01A
:104A20009DF8306046F010068DF8306028B19DF892
:104A3000300040F020008DF830002AB19DF8302081
:104A400042F040028DF830209DF8302002F0440002
:104A5000442803D16FF386128DF830209DF8302062
:104A60002A2B42F080028DF830207BD19DF8312036
:104A70004B1C42F001028DF831201A782E2A0CBF0F
:104A8000012100219DF8312061F341028DF8312090
:104A900074D15A782A2A6AD000210A26013318468E
:104AA00010F8012BA2F13007092F40F28E809DF8FB
:104AB00030200E91C2F3400040EAD17161F341020F
:104AC0008DF830205AE00AF102078DF833309DF856
:104AD0003130D90740F1498154F8049BB9F1000FF6
:104AE00007DA9DF83020C9F1000942F004028DF880
:104AF00030205A0740F1428154F8048BB8F1000F7E
:104B000080F241819DF831306FF341038DF83130EF
:104B10004FF0FF3837E12D2B0CD0302B7FF46DAFE9
:104B200001225CE74FF0010C59E74FF0010E56E708
:104B3000012054E7012652E733460CFB0202303ACB
:104B40001E4616F8010BA0F13007092FF4D999423F
:104B500093D09DF830100D92D20F62F341018DF881
:104B600030108AE70B4600224FF00A0CE8E79DF868
:104B70003120023342F004028DF831201F4617F82D
:104B8000012B6C2A41D025D8682A2BD06A2A46D01E
:104B90004C2A4CD01F4617F8012B9DF83130782A4B
:104BA0008DF8332000F2D980572A4DD8412A03D0FE
:104BB000453A022A00F2D18004229DF8323062F395
:104BC00002038DF8323001239EE006FB01210346EB
:104BD000303964E7742A26D07A2ADBD106229DF880
:104BE00031300DE05A78682A9DF8312006D1012134
:104BF00061F3C6028DF831209F1CCCE713460222D8
:104C000062F3C6038DF83130C5E75A786C2A9DF8F7
:104C1000312001D10421EBE713460322F0E70522FE
:104C20009DF83130ECE707229DF83130E8E7BDF818
:104C3000303023F4F04323F0020343F4804343F085
:104C40000203ADF83030A6E7A2F15801202900F2A6
:104C5000848001A050F821F01D4D00015B4D000142
:104C60005B4D00015B4D00015B4D00015B4D0001A0
:104C70005B4D00015B4D00015B4D0001B94B000134
:104C80005B4D00011D4D0001DD4C0001B94B0001E1
:104C9000B94B0001B94B00015B4D0001DD4C000137
:104CA0005B4D00015B4D00015B4D00015B4D000160
:104CB000254D00011D4D0001414D00015B4D0001DE
:104CC0005B4D0001414D00015B4D00011D4D000198
:104CD0005B4D00015B4D00011D4D000101209DF861
:104CE000321003F0780360F30201402B8DF832108C
:104CF00002BF9DF8301041F001018DF83010632A99
:104D000031D1003B18BF01239DF83020C2F3400190
:104D10000B4363F341028DF83020D8E602209DF862
:104D20003210DEE703219DF8322003F07803A3F16F
:104D3000400061F3020243428DF832204341E3E731
:104D400003219DF8322013F0780F61F3020214BFA3
:104D5000012300238DF83220D6E79DF8303043F050
:104D600001038DF830300023CEE79DF93020002A72
:104D7000ACBF4FF0FF39DDF83490BAE69B077FF502
:104D8000C7AEDDF838800023CDE90D339DF8323011
:104D90009DF8311003F00703012BC1F3C30138D193
:104DA000CB1E042B22D8DFE803F0030909212100E0
:104DB00054F8043BDA17CDE90A3206E0073424F050
:104DC0000704F4E80223CDE90A239DF8303013F0FC
:104DD000030656D03B4652465946029809F07BFAE4
:104DE0000028C0F242810544BA46D9E554F8043B94
:104DF00001294FEAE372CDE90A3205D19DF8283046
:104E00000A9300230B93E0E70229DED1BDF9283095
:104E1000D0E7022B23D1CB1E042B13D8DFE803F0FD
:104E2000030A0A12120000232268201D0A920B9323
:104E30000446CAE7E01D20F00700F0E80223CDE9B0
:104E40000A23F5E754F8043B01290A934FF00003C5
:104E50000B93D3D00229B8D1BDF82830D0E7042B6A
:104E600009D1E31D23F0070303F10804D3E900236C
:104E7000CDE90A23A9E7032B04BF54F8043B0A93A6
:104E8000A3E79DF833007828AED8622822D82528D9
:104E90003FF48FAD5828A7D1DDE90A010DF12603B3
:104EA00000930CAA04AB09F0D0F98246B8F1000FC8
:104EB0000DF126000CDB9DF83020A0EB0A036FF308
:104EC000861298458DF8302002D9A8EB03030D9384
:104ED00080463DE06338152886D801A252F820F0BC
:104EE000614F0001C54F0001E94D0001E94D00018E
:104EF000E94D0001E94D0001C54F0001E94D0001F8
:104F0000E94D0001E94D0001E94D00011F5000018C
:104F1000ED4F0001F14F0001E94D0001E94D0001A5
:104F2000394F0001E94D0001ED4F0001E94D00014D
:104F3000E94D0001ED4F0001B8F1000FDDF828A0A8
:104F40000ADB4146504609F0D7FA00260AEB000872
:104F5000BAF1000F0CD147E7504609F0C6FAF4E762
:104F600000260A9B0DF1100A8DF810300DF1110882
:104F7000A8EB0A0306B101339DF83220D00668D5AC
:104F8000023352060D9948BF0E9A0B4448BF9B1836
:104F9000B9F1000F76DD9DF83020A9EB0309C2F3CB
:104FA0008003039353076DD4500661D546B159462B
:104FB0003046029B9847002857DB039B01351E466D
:104FC000302356E01E070FD413F0100618BF20261A
:104FD000DDE90A23002BBFF65FAF524263EB4303C8
:104FE0002D26CDE90A2357E72B26F1E7002653E7C4
:104FF0000A9840B30DF126030093002104AB0CAADC
:1050000009F023F9BDF83230824603F0EF0343F490
:10501000F04343F010030026ADF8323046E70A9B18
:1050200007293FF6E1AEDFE801F00C04060C0808A2
:105030000C0C1D70D8E61D80D6E6EA17C3E90052B5
:10504000D2E61D60D0E6DFF8C8A006460AF10508E2
:105050008EE7110748BF013393E71846039359467B
:10506000029B98470028039B04DA11B0BDE8F08F3B
:1050700020234D444A46002AA5EB090109F1FF39D6
:10508000EBDC0D4636B159463046029B9847002866
:10509000EBDB01359DF83230D90601D41A0706D56D
:1050A00059463020029B98470028DEDB01359DF8E9
:1050B0003230DB0607D559469DF83300029B9847EE
:1050C0000028D2DB01350D9E2E44731B002B16DC0D
:1050D000434652465946029809F0FDF80028C4DBC1
:1050E0000544A944A9EB0503002B7FF77DAE594683
:1050F0002020029B98470028B7DB0135F2E759468C
:105100003020029B98470028AFDB0135DDE700BF68
:105110002C0501014FF04002EFF3118382F3118857
:10512000BFF36F8F0121044AC2F8401583F3118841
:10513000BFF36F8F002070470000084120B1034B80
:10514000800143F001031847704700BFF0020101DE
:10515000014B1878704700BF00000720014B197001
:10516000704700BF00000720014902480AF034BD23
:10517000341B0021B8070021014B58680AF098BA87
:10518000441B0021054B13B5186800238268009367
:10519000146819461A46A04702B010BD301B002102
:1051A000434B2DE9F04107460D4693E803000023E9
:1051B00086B004AC84E803004FF4006200933D49DC
:1051C0004FF0FF333C4807F03FFB3C493A480AF0B8
:1051D0008FFC3B493B480AF0F6FC204606F0B4FD44
:1051E000044678B9384806F08FFD044650B937496F
:1051F000374803AA0AF0EAF8044618B9039B9A68EC
:1052000022B93860204606B0BDE8F0810C333B601F
:10521000002BF7D02F4806F09BFF2F4E30602F4811
:1052200006F096FF3268002A3FD000283DD0836800
:1052300022465B682A499847B4200AF02BFE0646AE
:1052400018B1B422214609F0B1F9DFF89880C8F806
:10525000006016B96FF00B04D4E7B4200AF01AFE10
:10526000064618B1B422002109F0A0F9C8F804607C
:10527000002EEFD03A681C4BD8F800005A611B4A48
:1052800010215A60042218609A6038681A6201225C
:10529000D86217489984D8619E61AA610222AA62E5
:1052A000144A99812A62EB62ACE76FF01204A9E715
:1052B00040020101E8470021B80700213205010141
:1052C00079510001341B00217C0000213D050101C2
:1052D000470501014F050101301B00215505010162
:1052E00069510001441B00214C00002100FC0720F3
:1052F00000F807200803010130B51D4D1D4928465F
:1053000085B0FFF74DFF044600282BD100900246E0
:105310002B681849184806F067FE044610BB0122A6
:10532000164B174D1A702A6862B1164B1249029338
:105330006B6805F1080001934FF0FF33009306F00E
:10534000A7FD90B9EA6C6AB10E4B0B4902932B6D25
:105350000D4801934FF0FF33009306F099FD0028AC
:1053600018BF0446204605B030BD0446FAE700BF2A
:10537000E41B002158080021E81B0021783E002191
:105380004C1B00210BE30001A01B00210B4B30B58F
:105390001B7804465BB90A4A106810B1D36C4BB94C
:1053A00001204C234343D518D450696030BD6FF0C1
:1053B0007600FBE76FF00B00F8E700BF783E0021B6
:1053C0004C1B002137B54C240B4601214443CDE949
:1053D0000021054D28190834D0E90B12281906F0D0
:1053E00045FD03B030BD00BF4C1B0021084B70B51C
:1053F000C31A0D4607499B100446594340220648EC
:1054000008F0A1FF2B4601462046BDE87040184732
:10541000941C0021B76DDBB638010101402373B540
:105420000B4C0093041B0B460D460A49A410614324
:105430000646094A094808F0B2FF011E05DA30465F
:105440002B4602B0BDE87040184702B070BD00BFE7
:10545000941C0021B76DDBB60FE400013801010197
:1054600070B5002201210446052000F03FFB052015
:1054700000F00AFB0F4801F079FB0F4B984215D161
:1054800009F07DF926690D49304608F019FC00281D
:105490000BDB012524690949356404F11C0008F07F
:1054A0000FFC002801DB0020E56470BD6FF00400F4
:1054B000FBE700BFF55400010000AD0B50030101F4
:1054C00001460C2300224B43084870B5C4184033F2
:1054D000D4E90E561844A26308F022FF2DB13246DB
:1054E0002B46BDE870400248184770BD941C00214F
:1054F0003801010110B1012804D07047034B1B6C27
:105500005B0701D1FFF7DCBF704700BF941C00218F
:1055100008B54FF04003EFF3118183F31188BFF317
:105520006F8F114A136843F0020013F001031060FB
:105530000BD00E4AD2F80C34D2F80C2413F001032D
:1055400003D00B4808F0ECFE012381F31188BFF370
:105550006F8F23B1BDE808400020FFF7B1BF0120E5
:10556000BDE8084001F0F2BAE41C002100500041FF
:10557000D41C00211FB500220123CDE902236B4674
:10558000084ACDF800D0CDF804D008F039FF002843
:1055900005DB4FF480420023684607F047F805B06A
:1055A0005DF804FB2DE40001074BD3E8EF2F22F058
:1055B0000201C3E8E01F0028F7D1D30702D401207D
:1055C00009F0D8B8704700BFE41C0021C3B21C200A
:1055D000014A03FB00207047941C00212DE9F04193
:1055E000012207463549D1E8EF3FC1E8E02F002806
:1055F000F9D133B9324933484B60CB608A6008F047
:1056000072FB7B1E012B2DD8012F06D12E4BD3F818
:105610001C3403F00303022B24D00AF063FA04467F
:1056200018B92A4B1B78002B41D14FF04003EFF300
:10563000118683F31188BFF36F8F0124224DDFF8A9
:105640009080D5F81834D5F81824D2030CD503F07F
:105650000303022B01D0012F06D124B386F3118856
:10566000BFF36F8FBDE8F081C4B1304600F09CFA03
:10567000D5F81835DBB2012BE3D1D5F80421002A87
:10568000DFD00022C5F80421D5F804210222C5F894
:1056900018252022C8F88021AB60D2E70021212004
:1056A00007F044FCE4E70223C5F80433DAE70222FA
:1056B000054B0646C3F80823C0E700BFE81C0021DD
:1056C000841C0021B01C002100500041D047002163
:1056D00000E100E02DE9F04100244FF48038164D40
:1056E000164E174FD6F8042308FA04F313421CD0C1
:1056F00057F82420CAB1002247F8242057F8241074
:10570000C6F8483304F5A87356F82310D6F80405F4
:10571000431A23F07F43B3F5000F88BF01462B687F
:105720002A6013B120466A6898470134032C05F1BA
:105730000805D7D1BDE8F081F41C002100600141CB
:1057400040610141044A1368C81A20F07F400344B5
:10575000136007F05FBD00BF101D00212DE9F04769
:105760004FF480374FF00009860000F1500406F135
:105770008246A40006F5B036A4B204F18244D6F8FD
:105780004035DFF86C8021F07F4504F5B034874068
:10579000D8F804A5A3EB0A0323F07F432AF07F4245
:1057A000012BC6F8402502D113200AF031FB0AF183
:1057B0000202AB1A23F07F43B3F5000F88BF1546F2
:1057C000C4F80090236825F07F43C8F84473C6F8F6
:1057D0004035D8F804359A4506D0EB1A023B23F041
:1057E0007F43B3F5000F01D8BDE8F0872B46CFE724
:1057F00000600141014BD3F804057047006001418E
:105800000123834010B5DC430A4AD2E8EF1F01EAC6
:10581000040CC2E8EECFBEF1000FF6D14FF4803297
:1058200002FA00F0044A0B42C2F8080314BF012038
:10583000002010BD0C1D00210060014189B1012331
:10584000084A8340D2E8EF1F1943C2E8EC1FBCF1BD
:10585000000FF7D14FF4803303FA00F0024BC3F886
:10586000040370470C1D0021006001412DE9F8433D
:105870000446914698460F46FFF7C2FF0646084D7C
:10588000394645F8349005EBC4052046C5F8048038
:10589000FFF764FF31462046BDE8F843FFF7CEBF6F
:1058A000F41C002110B501240C4B186898B1B0FA13
:1058B00080F0C0F11F0004FA00F1C943D3E8EF2FD4
:1058C00002EA010CC3E8EECFBEF1000FF6D1C240F0
:1058D000D207EAD510BD6FF00B00FBE7F01C0021EA
:1058E00038B500254FF48033134C4FF48002C4F8D0
:1058F0000855C4F804334FF40033C4F804334FF4AC
:105900008023C4F804330D4B0121C3F880211620F5
:105910002A4600F0EBF8162000F0B6F80123072223
:10592000A3602360064B02201A600622054B1A6012
:10593000FFF754FE284638BD0060014100E100E059
:105940000C1D0021F01C0021134AB0F1FF3F14BFD1
:1059500003461346013B002B1CDD9342A8BF1346B0
:105960000E4AD2F804050E4A1168401A10F4000FCE
:1059700018BF002320F07F4201320A4813440A4A2C
:10598000106000205060044A934294BFC9188918DF
:10599000FFF7E4BE0023E3E7FFFF7F000060014163
:1059A000101D002145570001F41C0021044BD3F8C1
:1059B0000405044B1B68C01A20F07F40704700BFED
:1059C00000600141101D0021034B43F8302003EB20
:1059D000C0035960704700BF10010021094A0A49FD
:1059E000936809685867996708494B6843F0805382
:1059F0004B60002383F31188BFF36F8F9368986F18
:105A0000704700BF783D00212805010100ED00E04E
:105A100013498A684FF030001044EFF3098C80E896
:105A2000F01F402080F31188BFF36F8F0D4F4FF0B0
:105A300000660A6A8A603E60506F0023536780F3F5
:105A4000118802F1300090E8F01F8CF3098802F110
:105A5000000004B508F000FDBDE8044070470000F8
:105A6000783D002104ED00E01EF0040F0CBFEFF3C1
:105A70000880EFF30980816911F8021C0229FFD028
:105A800001B508F0EFFC01BD43B2002B08DB012299
:105A900000F01F0002FA00F0024A5B0942F82300FE
:105AA000704700BF00E100E043B2002B0DDB012294
:105AB00000F01F0002FA00F05B09044A203342F8AC
:105AC0002300BFF34F8FBFF36F8F704700E100E0FB
:105AD000054B420953F82220012300F01F0003FA6E
